:020000040800F2
:1000000000C00020B5410008FD410008FD41000886
:10001000FD410008FD410008FD410008000000000E
:10002000000000000000000000000000FD4100088A
:10003000FD41000800000000FD410008F91400081F
:10004000FD410008FD410008FD410008FD41000898
:10005000FD410008FD410008FD410008FD41000888
:10006000FD410008FD410008FD410008A115000800
:10007000FD410008FD410008FD410008FD41000868
:10008000FD410008FD410008FD410008FD41000858
:10009000FD410008FD410008FD410008FD41000848
:1000A000FD410008FD410008FD410008FD41000838
:1000B000E9370008FD410008FD410008FD41000846
:1000C000FD410008FD410008FD410008FD41000818
:1000D000FD410008FD41000831140008FD11000831
:1000E000FD410008FD410008FD410008FD410008F8
:1000F000FD410008FD410008FD410008FD410008E8
:10010000FD410008FD410008FD410008FD410008D7
:10011000FD410008FD410008FD410008FD410008C7
:10012000FD410008FD410008FD410008FD410008B7
:1001300000000000000000000000000000000000BF
:1001400000000000000000000000000000000000AF
:10015000000000000000000000000000000000009F
:10016000000000000000000000000000000000008F
:10017000000000000000000000000000000000007F
:10018000000000000000000000000000000000006F
:10019000000000000000000000000000000000005F
:1001A000000000000000000000000000000000004F
:1001B000000000000000000000000000000000003F
:1001C000000000000000000000000000000000002F
:1001D000000000000000000000000000000000001F
:0401E0005FF8E0F1F3
:1001E40010B5054C237833B9044B13B10448AFF36D
:1001F40000800123237010BD700000200000000067
:10020400404D000808B5034B1BB103490348AFF345
:10021400008008BD0000000074000020404D00086C
:10022400034613F8012B002AFBD1181A0138704732
:100234004FF0FF0C1CEAD0521EBF1CEAD15392EAC5
:100244000C0F93EA0C0F6FD01A4480EA010C4002A1
:1002540018BF5FEA41211ED04FF0006343EA5010FB
:1002640043EA5111A0FB01310CF00040B1F5000F3D
:100274003EBF490041EAD3715B0040EA010062F1EC
:100284007F02FD2A1DD8B3F1004F40EBC25008BFD6
:1002940020F00100704790F0000F0CF0004C08BFF4
:1002A40049024CEA502040EA51207F3AC2BFD2F1C1
:1002B400FF0340EAC250704740F400004FF00003CF
:1002C400013A5DDC12F1190FDCBF00F00040704709
:1002D400C2F10002410021FA02F1C2F1200200FA47
:1002E40002FC5FEA310040F1000053EA4C0308BF0E
:1002F40020EADC70704792F0000F00F0004C02BF5F
:10030400400010F4000F013AF9D040EA0C0093F0D9
:10031400000F01F0004C02BF490011F4000F013B33
:10032400F9D041EA0C018FE70CEAD15392EA0C0FA1
:1003340018BF93EA0C0F0AD030F0004C18BF31F00C
:10034400004CD8D180EA010000F00040704790F0E2
:10035400000F17BF90F0004F084691F0000F91F086
:10036400004F14D092EA0C0F01D142020FD193EA4C
:100374000C0F03D14B0218BF084608D180EA0100D4
:1003840000F0004040F0FE4040F40000704740F0B0
:10039400FE4040F44000704780F0004002E000BF9F
:1003A40081F0004142001FBF5FEA410392EA030F5C
:1003B4007FEA226C7FEA236C6AD04FEA1262D2EBA6
:1003C4001363C1BFD218414048404140B8BF5B42AB
:1003D400192B88BF704710F0004F40F4000020F044
:1003E4007F4018BF404211F0004F41F4000121F05A
:1003F4007F4118BF494292EA030F3FD0A2F10102A4
:1004040041FA03FC10EB0C00C3F1200301FA03F1E1
:1004140000F0004302D5494260EB4000B0F5000F04
:1004240013D3B0F1807F06D340084FEA310102F1C3
:100434000102FE2A51D2B1F1004F40EBC25008BF75
:1004440020F0010040EA03007047490040EB00003F
:10045400013A28BFB0F5000FEDD2B0FA80FCACF140
:10046400080CB2EB0C0200FA0CF0AABF00EBC2506D
:1004740052421843BCBFD0401843704792F0000F5B
:1004840081F4000106BF80F400000132013BB5E7AE
:100494004FEA41037FEA226C18BF7FEA236C21D024
:1004A40092EA030F04D092F0000F08BF0846704789
:1004B40090EA010F1CBF0020704712F07F4F04D157
:1004C400400028BF40F00040704712F100723CBF6A
:1004D40000F50000704700F0004343F0FE4040F494
:1004E400000070477FEA226216BF08467FEA236352
:1004F4000146420206BF5FEA412390EA010F40F43D
:10050400800070474FF0000304E000BF10F0004388
:1005140048BF40425FEA000C08BF704743F096436F
:1005240001464FF000001CE050EA010208BF70478A
:100534004FF000030AE000BF50EA010208BF704711
:1005440011F0004302D5404261EB41015FEA010C26
:1005540002BF84460146002043F0B64308BFA3F11E
:100564008053A3F50003BCFA8CF2083AA3EBC25300
:1005740010DB01FA02FC634400FA02FCC2F120021F
:10058400BCF1004F20FA02F243EB020008BF20F056
:100594000100704702F1200201FA02FCC2F12002BC
:1005A40050EA4C0021FA02F243EB020008BF20EAB1
:1005B400DC7070474FF0FF3C06E000BF4FF0010CC9
:1005C40002E000BF4FF0010C4DF804CD4FEA4002A9
:1005D4004FEA41037FEA226C18BF7FEA236C11D0F3
:1005E40001B052EA530C18BF90EA010F58BFB2EBA6
:1005F400030088BFC81738BF6FEAE17018BF40F026
:10060400010070477FEA226C02D15FEA402C05D1D9
:100614007FEA236CE4D15FEA412CE1D05DF8040B5E
:10062400704700BF844608466146FFE70FB5FFF7F1
:10063400C9FF002848BF10F1000F0FBD4DF808EDA9
:10064400FFF7F4FF0CBF012000205DF808FB00BF9A
:100654004DF808EDFFF7EAFF34BF012000205DF8F4
:1006640008FB00BF4DF808EDFFF7E0FF94BF012041
:1006740000205DF808FB00BF4DF808EDFFF7D2FF3E
:1006840094BF012000205DF808FB00BF4DF808ED81
:10069400FFF7C8FF34BF012000205DF808FB00BF4E
:1006A4004FEA40024FEA41037FEA226C02D15FEA3B
:1006B400402C08D17FEA236C02D15FEA412C02D19D
:1006C4004FF0000070474FF0010070474FEA4002BE
:1006D400B2F1FE4F0FD34FF09E03B3EB12620DD96C
:1006E4004FEA002343F0004310F0004F23FA02F0D6
:1006F40018BF404270474FF00000704712F1610F7D
:1007040001D1420205D110F0004008BF6FF0004053
:1007140070474FF000007047BFF34F8F0549064BF9
:10072400CA6802F4E0621343CB60BFF34F8F00BF8B
:10073400FDE700BF00ED00E00400FA0508B5FFF78F
:10074400EBFF000000202022024B1870024B5A617C
:10075400704700BF400400200008014070B5002429
:10076400094D0A4EE3B22A68190102EB03135258E9
:1007740001340AB9072070BDD86800F08FFD3046F7
:1007840000F08CFDEEE700BF38060020C7510008DA
:1007940008B503F051FA80F00100C0B2800008BD32
:1007A40008B503F063FA80F00100C0B2800008BD10
:1007B40008B503F015F9012801D0022008BD002076
:1007C40003F014F9431EDBB20F2BF6D8034BC0B26F
:1007D4005860034800F062FD0020EFE7C4060020E3
:1007E400584D000808B503F0FBF8012801D0022099
:1007F40008BD002003F0FAF8431EDBB20F2BF6D835
:10080400034BC0B29860034800F048FD0020EFE7B6
:10081400C40600208E4D000808B503F0E1F8012855
:1008240001D0022008BD002003F0E0F8C0B2012886
:10083400F7D8034BD860034800F030FD0020F1E7FF
:10084400C4060020CC4D000808B5002003F0CEF803
:100854004FF47A7100B203F0C2FA034B186000201F
:10086400024B186008BD00BFA000002090000020CB
:1008740008B5002003F0BAF84FF47A7100B203F01F
:10088400AEFA034B18600020024B186008BD00BF8D
:100894009C0000209000002008B503F0A1F8022875
:1008A40017D1002003F0A2F84FF47A7100B203F0DC
:1008B40096FA094B1860012003F098F84FF47A7106
:1008C40000B203F08CFA054B18600020044B18604A
:1008D40008BD0220FCE700BFA00000209C0000200F
:1008E40090000020074B1B68022B06D0032B06D078
:1008F400012B06D1044800F0D1BC0448FBE70448AE
:10090400F9E77047C4060020F84D0008FC4D0008C4
:10091400034E000808B503F063F8012818D100203D
:1009240003F064F8431EDBB2022B11D8094BC0B2AA
:100934001860FFF735FF084800F0B0FCFFF7D2FF5E
:10094400064800F0ABFC322003F070F9FFF7E4FE38
:10095400022008BDC40600200C4E0008194E0008F1
:1009640038B5184D184C194800F098FC2978002324
:100974000122204603F060FA154800F08FFCFFF7CF
:10098400B1FF144800F08AFC134800F087FC0123EF
:1009940029791A46204603F04FFA104800F07EFCED
:1009A4000123297A1A46204603F046FA0C4800F03F
:1009B40075FC012320461A46297B03F03DFA0720E3
:1009C40038BD00BFC40600204D120008404E000888
:1009D4005B4E0008C75100085F4E00087A4E0008BD
:1009E400954E000838B50024044D2C6032200134A3
:1009F40003F01CF9082CF8D138BD00BF4C040020CA
:100A0400F8B501240827084E084D3368A34200DADC
:100A1400F8BDFA202F6003F009F90023FA202B60B7
:100A2400013403F003F9F0E7C40600204C0400206D
:100A3400002408B5044B1C60FFF7D4FF2022034BAD
:100A44001C70034B5A61FEE7480400204004002058
:100A5400000801402DE9F04F654B85B0188A654CBC
:100A640080B2FFF74FFDA369009043F00103A36137
:100A7400A369032003F001030393039B01F078FDB2
:100A840000226FF00B00114601F084FD00226FF08C
:100A94000A00114601F07EFD00226FF009001146A4
:100AA40001F078FD00226FF00400114601F072FDA0
:100AB40000226FF00300114601F06CFD00226FF07C
:100AC4000100114601F066FD00224FF0FF3011468F
:100AD40001F060FD03F0B8FB6369474E23F00103A6
:100AE400636101F05DF801F061F901F055FA01F07C
:100AF400E7FA00F0E1FC03F065F803F027F903F0EE
:100B0400DBF83E4B18703368022B04D0032B3BD028
:100B140000F0F4FF05E003F06BF902F035FF00F09C
:100B2400C7FB2023DFF8D8803648C8F81030364F8A
:100B340001F0E6FB354801F0E3FB3B78DA2B71D09A
:100B4400002440F6B83A4FF00409DFF8C4B0314D40
:100B5400FFF756FFCBF80040D8F808309B0716D4AF
:100B6400002C5FD003F082F898B3DA233B70BFF314
:100B74004F8F2949294BCA6802F4E0621343CB60C2
:100B8400BFF34F8F00BFFDE700F052FAC0E73220F9
:100B9400C5F8109003F04AF83220C5F8149003F019
:100BA40045F8DBF800305345D6D90124D8F808308D
:100BB4009A07D1D5DBF800305345F7D933680AF6E4
:100BC400B83A0133042BA8BF01233360FFF718FFA1
:100BD400ECE708242646124DFA202E6003F026F88E
:100BE4000023FA202B6003F021F8013CF4D1BCE788
:100BF400E004002000100240C40600208C00002005
:100C0400000801402405002040080020F4040020CE
:100C14002C040020000C014000ED00E00400FA0563
:100C24004C040020002501233D702F46B64A137062
:100C3400B64A33681168032940F224810021032B4A
:100C4400B34CDFF8D092116040F03881B24B1B787E
:100C5400BBB100F009FAB14B1B78002B00F02881DE
:100C6400AF4B1B78002B40F02381AE4A736832F8F7
:100C740013301BB22360B36832F813301BB2C9F8C7
:100C840000300023A84ADFF8A4A213602368DAF82E
:100C940000000193FFF73AFC4FF07C51FFF7C8FACC
:100CA40004460198FFF732FC4FF07C51FFF7C0FA7D
:100CB40001462046FFF776FBFFF708FDCAF800005F
:100CC400DFF86CA28346DAF80000FFF71FFC4FF050
:100CD4007C51FFF7ADFA0446D9F80000FFF716FC83
:100CE4004FF07C51FFF7A4FA01462046FFF75AFB68
:100CF400FFF7ECFCCAF80000FFF708FC4FF07C514A
:100D0400FFF796FA82465846FFF700FC4FF07C51F5
:100D1400FFF78EFA014683465046FFF741FB8549AB
:100D24000446FFF7B3FC002840F0E38020468249E4
:100D3400FFF78EFC002840F0DF802046FFF7C6FC5A
:100D440004467E4B594650461C60FFF72BFB7949FD
:100D54008246FFF79BFC002840F0D080504676493D
:100D6400FFF776FC002840F0CC805046FFF7AEFC3D
:100D74008346DFF8CCA107F1C7035B45CAF800B08E
:100D84000FDBC73F5F450CDC05F1C703A34208DB5B
:100D9400C73DA54205DC6B4B6B4A1C60CBF10003DD
:100DA40013606A4B1A68C72A4DD90027684900980E
:100DB4001F60FFF73DFA0546664B188A80B2FFF7BD
:100DC400A1FB6549FFF734FA2946FFF7EBFA6349BB
:100DD4000090FFF7E5FA6249FFF72AFA6149FFF745
:100DE400E1FABDF904100546384600F043FE01203F
:100DF400B9F9001000F03EFE504B0220B3F9001088
:100E040000F038FE0320BAF9001000F033FE4D4B19
:100E14000420196809B200F02DFE4B4B0520196817
:100E240009B200F027FE0098FFF750FC01B206203B
:100E340000F020FE2846FFF749FC01B2072000F02D
:100E440019FE00F01DFED8F80830474D13F0020FCC
:100E540000F0A080454B1B68002B40F09B80444B66
:100E64001B68002B40F0968005270426264A414C37
:100E74001370D8F8083013F0020340F081802B601F
:100E8400FFF7D6FD022B01D100F0A8FA3A4B1A68FD
:100E9400B2F5FA7F04D22C46BB4625465F46C7E628
:100EA40000221A60334AD36883F00403D360F2E764
:100EB400F368002B7FF4E5AE2360E0E6012B7FF4BA
:100EC400E0AEDFF890A04FF47A71BAF80E00A0F209
:100ED400FF7000B202F083FF2060BAF812004FF4F2
:100EE4007A71A0F2FF7000B202F079FFC9F8000035
:100EF400C7E64FF47A7424E7204C22E74FF47A7B58
:100F040037E7DFF878B034E74004002034040020E9
:100F1400A00000209C000020FA000020F90000201E
:100F2400F8000020D400002090000020A800002039
:100F3400AC00002000007A4400007AC49400002031
:100F4400980000205C04002060040020300400208D
:100F5400A4707D3FE00400200AD7233C00E0CE4487
:100F6400083748BE33330F424C0400205404002099
:100F740058040020000C01402804002018FCFFFF46
:100F84002F603220266102F051FE3220666102F0A9
:100F94004DFE6EE71D4B1E491F683846FFF758FB90
:100FA40028B11C4B1B681333262B7FF669AF3846D8
:100FB4001949FFF74DFBC0B138461549FFF766FBE9
:100FC40098B105200623154A28601360DAF800302A
:100FD400134A002BB8BF5B42C82B08DD0023136003
:100FE400104A13680133136057E70346EBE70E4BCF
:100FF4001B68002BB8BF5B42C82BEFDC13680133BE
:1010040013600A4A9342EBD93AE700BF000000207C
:10101400CCCC0642AC00002000000C424804002066
:10102400A4000020900000209400002080380100DB
:101034000A4B5A6822F470425A605A6842F40042D9
:101044005A604FF400621A610022054B1A70102294
:10105400044B83F8272380225A607047000C014018
:10106400FB00002000E100E00022F8B55C4B5D4885
:101074001A70012303705C4B5C4CB3F80110DE78EA
:101084009D78C1F30A012180710141EAD5015D799E
:101094001F79C1F30A016180A90241EA870141EA8B
:1010A40096119E79C1F30A01A180F10141EA55012B
:1010B400DD79C1F30A01E180290141EA16115E7A62
:1010C4001F7AC1F30A012181710241EA470141EA11
:1010D400D511C1F30A016181997ADF7B8D0145EA5B
:1010E4009605C5F30A05A581DD7A490941EAC501DA
:1010F400E18199899E7B5D7BC1F30A0121827101A3
:1011040041EAD5011D7CC1F30A016182A90241EAC9
:10111400870141EA96115E7CC1F30A01A182F101C3
:1011240041EA5501C1F30A01E1829D7CDF7C29017A
:1011340041EA16111E7DC1F30A012183710241EABD
:10114400470141EAD511C1F30A016183597D8D013B
:1011540045EA9605C5F30A05A5839D7D490941EA3B
:10116400C501E18340F2FF71DB7D13F0010F14BF71
:101174000D46154613F0020F08BF114625846184FD
:101184001B49C3F3C0030B7040F23275134611467A
:1011940034F8132012B28D2A04DD34F8132012B26D
:1011A400AA4200DD01700133102BF1D10378B3B1F1
:1011B4000025104E34F81530C8211BB2B3F1C0001D
:1011C40048BFA3F1BD008010C83802F008FE00EB50
:1011D400800000B226F815000135122DEAD1F8BDC1
:1011E400FA000020F9000020FC000020B0000020DC
:1011F400F8000020D400002010B50F4B0F495B68A5
:101204000C780F4ADBB23CB90F2B05D101201370C7
:10121400FA230870137610BD601CC0B21928087038
:101224001355F8D100230B70137E002BF3D1012248
:10123400044B1A70EFE700BF00480040FB00002099
:10124400FC000020FA00002070B5104D2B889BB2E2
:10125400002BFBD00E4A0F4CD3680F4E23F04003F3
:10126400D3602388F054591C2B8889B2013B9BB26C
:10127400B1F5007F2B8028BF0023218028BF238065
:10128400D36843F04003D36070BD00BF1E0100204B
:1012940000440040240100202601002010B5441E13
:1012A40014F8010F00B910BDFFF7CEFFF8E70000F6
:1012B4003A4B13B59A69082442F004029A619A6978
:1012C40002F004020092009ADA6942F40032DA6110
:1012D400DB6903F400330193019B314B1A6822F458
:1012E40070621A601A6842F420621A601A6822F462
:1012F40070421A601A6842F400421A601C6101F0DC
:101304003DFD4FF461336D22B0FBF3F0254B986043
:10131400DA6042F22C02DA604FF40072224B234866
:101324001A800022224B83F8262340225A60FFF7BA
:10133400B5FF2048FFF7B2FF1F48FFF7AFFF01F0EA
:101344001DFD0123014622461C4802F0A7FD1C484E
:10135400FFF7A4FF01F0F0FD0123014622461748E0
:1013640002F09CFD1748FFF799FF01F0EBFD012304
:1013740001462246114802F091FD1348FFF78EFF03
:10138400124B1B7843B11248FFF788FF114802B093
:10139400BDE81040FFF782BF0F48F5E70010024098
:1013A40000080140004400401E0100202C510008A8
:1013B40000E100E03D510008685100084D120008AA
:1013C4007951000888510008975100088C000020CA
:1013D400A8510008CA510008AD51000838B50E4D97
:1013E4002B78B3B10D4C2378A3B10D48FFF756FF0A
:1013F4000C4802F079FB062806D83030C0B2FFF75B
:1014040023FF0748FFF74AFF0023064A2B70137097
:10141400237038BD0448F5E71C010020200100209A
:10142400C751000826030020E85100081B4B70B583
:101434001A6812F0200214D05A681948D2B20D2A40
:10144400184B06D019781C78611CC9B21970025562
:1014540070BD00221B78DBB2C2540122124B1A70F9
:10146400F6E7124C218889B2B1F5007F11D21048F9
:10147400104E0588691C755D89B201805D60238802
:10148400B1F5007F03F101039BB22380E0D3028016
:10149400DEE7DA6822F04002DA60D9E7004400406F
:1014A40026030020200100201C0100201E01002032
:1014B400220100202601002008B501F05FFC4FF452
:1014C4007A73B0FBF3F00138B0F1807F0AD24FF0A9
:1014D400E023F021054A586182F8231000229A6122
:1014E40007221A610022024B1A6008BD00ED00E0D9
:1014F400380400200A4A136801331360094A136848
:1015040001331360084A136801331360074A1368F0
:1015140001331360064A136801331360704700BF38
:101524003804002034040020300400202C0400205F
:101534002804002010B505291BD8DFE801F0030AB0
:101544000E1114170446404211601C60029B18607F
:1015540010BD044641420020F6E741420024F3E76F
:1015640000214442F0E701464442F4E70146404288
:10157400F4E700210C460846E6E710B505280BD829
:10158400DFE800F00604040303081146196010BDE7
:10159400891AFBE7511AF9E70021F7E70222244BE5
:1015A4002DE9F04F5A60234B234D1968234A244FE9
:1015B4002448B1F57A7FD5F800801668D7F80090F2
:1015C400D0F800A0204C8FB044DA01311960A18812
:1015D40089B2494401EBD17149103960E18889B27B
:1015E400514401EBD1714910016018482188076802
:1015F40089B2394401EBD171491001601448618802
:10160400076889B2394401EBD171491001606089DE
:1016140080B2404400EBD07040102860208980B232
:10162400304400EBD070401010600FB0BDE8F08F74
:1016340000000240500400200800002004000020A4
:101644001800002014000020E004002010000020F6
:101654000C0000204FF47A71B34B1D68B5FBF1F216
:1016640001FB1252BAB9A089DFF8C0B280B2FEF70A
:1016740049FFAF49FEF7DCFDAE49FEF7D9FDAE499F
:101684000746DBF80000FEF7D3FD01463846FEF7B7
:1016940089FECBF80000608980B2A0EB0800FEF759
:1016A40035FFA649FEF7C4FD0021FEF7D1FF00284F
:1016B40000F08681608980B2A0EB0800FEF726FF67
:1016C4009E49FEF7B5FD9E49FEF7C2FF40B99D4B0A
:1016D4001B68052B04D89C4B1B78002B40F07D81A4
:1016E4009A4A536C23F400435364208980B2801BCC
:1016F400FEF70CFF9149FEF79BFD0021FEF7A8FFC2
:10170400002800F06F81208980B2801BFEF7FEFE66
:101714008A49FEF78DFD8A49FEF79AFF40B9894B45
:101724001B68052B04D8884B1B78002B40F066817E
:10173400874A536C23F400435364864B8648996864
:101744009E68D3F808C086F040068CF0800CCCF379
:10175400C01CC6F3801681F02001836806EB4C069A
:101764008268C1F3401187687C4801EB4601415C03
:101774007B4E87F480573160316882F40062023115
:1017840031600621D6F800C0C7F300379CFBF1FE98
:10179400C2F3C02283F4806301FB1ECC02EB470238
:1017A400C3F3802303EB42036E4FC35CC6F800C04F
:1017B4003B603B6802333B603B6893FBF1F201FB07
:1017C40012333B603068A188E28889B292B2664BDA
:1017D400A2EB0A02A1EB0901FFF7CFFE524A6B1CF0
:1017E4001360624A1068002800F00D8141F28832CB
:1017F400B3FBF2F25E4909680131B2FBF1F401FB7B
:101804001422002A40F0FF80B3FBF0F200FB1233F5
:1018140023B9584AD36883F01003D360564C04AB01
:10182400206802AA3168DFF85481009303ABFFF704
:1018340081FE07ABD8F8000005AA3968009306AB0F
:10184400FFF778FE23684E4A002B10680AAB346811
:1018540040F3DD800621053494FBF1F501FB1541CD
:10186400009308AA09ABFFF765FE029E089B039D3F
:101874001E44099B049C1D440A9B424A1C44D8F8FC
:1018840000300296002B106803953F6804940DAB5A
:1018940040F3C8800621053797FBF1FC01FB1C715E
:1018A40000930BAA0CABFFF745FE0B9B0599069A18
:1018B40019440C9B0D981A44079B034440F2DE30F4
:1018C400864200F3BA80A0F2BC708642B8BF0646D6
:1018D40006F57A761D48466340F2DE36B54200F3DB
:1018E400AF80A6F2BC76B542B8BF354605F57A7529
:1018F400856340F2DE30844200F3A580A0F2BC7020
:101904008442B8BF044604F57A741048C46340F2B4
:10191400DE30814200F39A80A0F2BC708142B8BFED
:10192400014601F57A712FE04404002000000020F4
:1019340017B9CE3C0AD7233CA4707D3F0AD7A33CF9
:10194400000070C1900000204004002000340140D9
:10195400002C0140000C014000100140EC51000833
:1019640068040020640400203C0400204C0400208F
:101974004804002000080140600400205C040020AA
:1019840058040020540400203548416340F2DE31FD
:101994008A425EDCA1F2BC718A42B8BF0A4602F5F3
:1019A4007A72826340F2DE32934255DCA2F2BC7258
:1019B4009342B8BF134603F57A73294AD36334E6D6
:1019C400608980B2A0EB0800FEF7A0FD2549FEF770
:1019D4002FFC2549FEF75AFE78E6244A536C43F45B
:1019E400004381E6208980B2801BFEF78FFD1D49EC
:1019F400FEF71EFC1C49FEF749FE8FE6184A536C9D
:101A040043F4004398E61022194B5A6106E7062175
:101A1400013494FBF1F5009301FB154109AB08AACD
:101A2400404220E70621013797FBF1FC009301FBBC
:101A34001C710CAB0BAA404235E740F2C67649E76D
:101A440040F2C67554E740F2C6745EE740F2C671D0
:101A54009AE740F2C672A4E740F2C673ADE700BF4E
:101A6400002C01400AD7A33C00007041003401401F
:101A740000080140014B23F8101070476C0400204B
:101A840030B51A4D87B064220021284602F0B8FC14
:101A9400174A184CB2F90E3028460593B2F90C30A7
:101AA40015490493B2F90A300393B2F9083002934A
:101AB400B2F906300193B2F904300093B2F902305E
:101AC400B2F9002002F07CFC236A63B9E36928467A
:101AD40023F00103E361FEF7A3FB2062A562E3693F
:101AE40043F00103E36107B030BD00BF7C04002074
:101AF4006C04002000000240F4510008224B70B531
:101B0400DA6996B042F48022DA61DA691F4D02F490
:101B140080220092009A5A69002442F001025A611C
:101B24005B694FF4806603F001030193019B184B3A
:101B340006A8CDE906534FF40053CDE908430C231E
:101B4400CDE90C44CDE90A6301F0EFFEEB68012214
:101B540043F02003EB606B690E4843F080036B6134
:101B64000223CDE90332032302A90593029600F070
:101B740093FE094B094ADC615A6290221C62DA61C5
:101B840070225A6016B070BD001002400048004038
:101B9400A0860100000C01400000024004480040FF
:101BA4007F4B2DE9F04F9A6989B042F004029A61A3
:101BB4009A69022702F004020192019A9A694FF08D
:101BC400200B42F008029A619A69764E02F00802EC
:101BD4000292029A9A69304642F010029A619B6915
:101BE40004A903F010030393039B00230797CDE993
:101BF4000533CDF810B000F04FFE40234FF08009BC
:101C0400304604A9049300F047FE304604A9CDF8F9
:101C1400109000F041FE4FF48062634C04A920460A
:101C2400049200F039FE4FF400634FF480554FF0F6
:101C340001084FF0040A204604A9049300F02CFE86
:101C4400204604A9049500F027FE049505F180457B
:101C540005F57845284604A900F01EFE284604A987
:101C6400049700F019FE304604A9CDE904A800F059
:101C740013FE102228460DEB0201049200F00CFE24
:101C8400284604A9CDF810B000F006FE0323204630
:101C940004A9CDE9048300F0FFFD284604A9CDF88A
:101CA400108000F0F9FD0823204604A9049300F0F5
:101CB400F3FD204604A9049700F0EEFD102220460F
:101CC4000DEB0201049200F0E7FD204604A9CDF8D3
:101CD40010B000F0E1FD204604A9CDF810A000F0FA
:101CE400DBFD0823284604A9049300F0D5FD28460B
:101CF40004A9CDF810A000F0CFFD40234FF4807A62
:101D0400204604A90493059700F0C6FD204604A9C3
:101D1400CDF8109000F0C0FD204604A9CDF810A025
:101D240000F0BAFD284604A9CDF8109000F0B4FDE7
:101D3400304604A9CDF8108000F0AEFD304604A969
:101D4400049700F0A9FD284604A9CDF810A000F0DE
:101D5400A3FD4FF40073284604A9049300F09CFDEE
:101D64004FF48062284604A9049200F095FD4FF4D4
:101D74000053304604A9049300F08EFD4FF48043D1
:101D8400304604A9049300F087FD4FF40043304625
:101D940004A9049300F080FD09B0BDE8F08F00BFF2
:101DA40000100240000C014000100140754B2DE969
:101DB400F04F9A6999B042F400629A619A690024DA
:101DC40002F400620192019A9A694FF0200842F4E9
:101DD40000529A619B696C4E03F400530293029B78
:101DE4004FF4FA63DFF8A4913046C6E90283C6E9EA
:101DF4000094C6E90444B46101F076FB102203A9FF
:101E0400304608274FF0600BCDE9032401F081FC34
:101E14004FF4007322460AA930461093CDE90AB460
:101E2400CDE90D740C940F9401F0AEFB0AA90422C1
:101E3400304601F0A9FB3A460AA9304601F0A4FB5A
:101E44004FF400624FF4806111A8CDE911210146DD
:101E54003046CDE91348CDE91544179401F033FC1D
:101E64004FF4FA634A4DDFF82CA12846C5E9033440
:101E7400C5E900A4C5E90544C5F8088001F034FBB0
:101E8400802303A8014628460493CDF80C8001F072
:101E940040FC052305A928460593069401F0FAF9A8
:101EA4004FF4007310930AAB224619462846CDE935
:101EB4000AB4CDE90C47CDE90E4401F065FB0AAB49
:101EC40019460422284601F05FFB0AAB19463A463C
:101ED400284601F059FB4FF400624FF48061284614
:101EE400CDE9112111A9CDE91348CDE91544179481
:101EF40001F0E9FBDAF84430214623F40043CAF840
:101F04004430D9F84430284623F40043C9F8443017
:101F140001F0BAFB0421284601F0B6FB39462846F5
:101F240001F0B2FB2146284601F0CBFB04212846F0
:101F340001F0C7FB3946284601F0C3FB2146304671
:101F440001F0A2FB0421304601F09EFB39463046E5
:101F540001F09AFB2146304601F0B3FB04213046E0
:101F640001F0AFFB3946304601F0ABFB01222B6890
:101F74001A633268136843F00103136019B0BDE8B3
:101F8400F08F00BF0010024094050020002C014097
:101F940054050020003401402DE9F041414E86B043
:101FA400B369414C43F40073B361B369002503F48E
:101FB40000730193019B3D4B4FF0050823604FF4E0
:101FC4008073C4E902354FF440232046E361656120
:101FD4006560C4F8108000F017FA354A6946536802
:101FE400204643F4802353604FF4C023009300F051
:101FF40095FA0E220123022703A92046CDE90323E3
:10200400059300F0C7F803A920460497039500F050
:10201400C1F8032305970B2703A92046CDE90373D1
:1020240000F0B8F804230C212046CDE9031303A9DA
:1020340000F0B0F807230593102303A92046CDE947
:10204400033800F0A7F8226829469368384643F419
:10205400000343F480739360936843F00103936037
:102064007369144A43F001037361736903F0010354
:102074000293029B104B9D60C3F80C801A610F4AB7
:102084005A6140F6A2229A609A6842F001029A606C
:102094002A4600F07FFA384600F0ACFA06B0BDE8F4
:1020A400F08100BF001002402405002000240140FC
:1020B400000001404C24014000000240E0040020E4
:1020C400294BF0B59A6985B042F480629A619B69A4
:1020D400264C03F480630093009B254B4FF48071DE
:1020E4004FF460220526236000232046C4E902132E
:1020F4006361E2616360266100F086F90F220123C7
:1021040001A92046CDE901230225039300F042F8FA
:102114000D2301A920460327CDE9013500F03AF843
:102124000A2301A92046CDE90137039500F032F8CE
:10213400042320460DEB03010293019500F02AF8D5
:102144000723204601A90393CDE9017600F022F884
:1021540023689A6842F480729A609A6842F0010295
:102164009A6005B0F0BD00BF00100240F4040020E6
:1021740000280140024A136801331360704700BF0E
:10218400D4050020014B1868704700BFD405002017
:1021940070470000002373B5019390F8243004467F
:1021A400012B6CD0012380F824304D680268062D81
:1021B400086805EB850322D81F26556B053B9E4016
:1021C40025EA060500FA03F32B43536309288B68B9
:1021D40000EB40054FF0070129D9D6681E3DA94000
:1021E40026EA0101AB400B43D360A0F11003012B9D
:1021F40025D90020002384F8243002B070BD0C2DB2
:102204004FF01F0509D8166B233B9D4026EA0505B0
:1022140000FA03F32B431363D8E7D66A413B9D408E
:1022240026EA050500FA03F32B43D362CEE71069CF
:10223400A94020EA0101AB400B431361D9E7114BDC
:102244009A4216D193681B02D3D49368102843F49E
:1022540000039360CDD10C4B0C4A1B68B3FBF2F323
:102264000A2253430193019B002BC2D0019B013BE3
:10227400F8E7A36A012043F02003A362BAE702202F
:10228400BBE700BF002401401C00002040420F00B7
:10229400002373B50193036804469A68D20702D5F4
:1022A400002002B070BD9A6842F001029A60124B9D
:1022B400124A1B68B3FBF2F30193019BC3B9FFF706
:1022C40061FF064623689D6815F00105E8D1FFF714
:1022D40059FF801B0228F5D9A36A012043F010039B
:1022E400A362E36A84F8245043F00103E362D8E76D
:1022F400019B013BE0E700BF1C00002040420F00AF
:1023040010B590F824300446012B54D0012380F8F2
:102314002430FFF7BDFF002849D1A36A274A23F4DC
:10232400407323F0010343F48073A3622368934250
:1023340004D123494A6812F4702F2ED1A26A22F4E0
:102344008012A2625A68520541BFA26A22F4405226
:1023540042F48052A262A26A12F480521CBFE26A62
:1023640022F00602E262002284F824206FF00202C6
:102374001A609A6802F46022B2F5602F13D10F4AF2
:10238400934205D1A2F58062526812F4702F0AD1EB
:102394009A6842F4A0029A6010BDA26A42F48012C4
:1023A400A2624A68CFE79A6842F48012F3E70023F6
:1023B40084F82430F0E70220EEE700BF0028014053
:1023C4000024014038B5036804469A68D20701D452
:1023D400002038BD9A6822F001029A60FFF7D2FE0D
:1023E400054623689B68DB07F2D5FFF7CBFE401B4D
:1023F4000228F6D9A36A012043F01003A362E36A1A
:1024040043F00103E362E4E7F8B50446002878D01A
:10241400836A23B9C36280F82430FFF7B9FE2046EB
:10242400FFF7D0FFA36A13F0100C6CD100286AD117
:10243400A26A374E22F4885222F0020242F00202CB
:10244400A262D4E90021B242E56904D1B5F5402F76
:1024540008BF4FF40025E768A66841EA4701B6F5CE
:10246400807F41EA050137D0731E5D425D412D0234
:102474006369012B06D18FBBA769013F45EA473742
:1024840047F400655768B6F5807F27F4694745EA45
:102494000705556097681F4D05EA070545EA0105DC
:1024A400956001D0012E03D12369013B4FEA035CFF
:1024B400D56A25F470054CEA0503D3629268164B7D
:1024C4001340994213D10023E362A36A23F0030368
:1024D40043F00103A362F8BD3546C9E7A76A47F094
:1024E4002007A762E76A47F00107E762CAE7A36A21
:1024F40023F0120343F01003A362E36A43F00103E1
:10250400E3620120E7E7A36A43F01003A362F8E75C
:10251400003C0140FDF7E1FFFE0E1FFF10B590F8EF
:1025240024300246012B1FD00123046880F8243094
:10253400A368DB0712D40D4B986810F001000DD18D
:10254400A3F580639C4209D16368096823F470236E
:102554000B436360002382F8243010BD936A01208A
:1025640043F020039362F5E70220F6E700280140D8
:1025740007490302CA6803F4E06322F4E062120428
:10258400120C134343F0BF6343F40033CB60704732
:1025940000ED00E0154B30B5DC68C4F30224C4F14F
:1025A4000703251D042B28BF0423062D4FF0FF35F8
:1025B40094BF0024033C05FA03F321EA0303A54076
:1025C40022EA0502A340002843EA0203ACBF00F15B
:1025D4006040074A4FEA0313DBB2B5BF00F00F00B7
:1025E40000F56140135480F8003330BD00ED00E085
:1025F40014ED00E001234109034A00F01F00834069
:1026040042F82130704700BF00E100E00138B0F12A
:10261400807F0BD24FF0E023F021054A586182F805
:1026240023100020072298611A6170470120704727
:1026340000ED00E04FF0E0231A6904280CBF42F0DB
:10264400040222F004021A6170470000114AD368A0
:1026540013F0100305D01049CB6943F00203CB619A
:102664001023D268500706D50B4943F00403CA6906
:1026740042F00102CA61074AD169C90708D5064870
:10268400C16941F00401C161D16921F00101D16145
:10269400D360704700200240D8050020064B1A6919
:1026A400120641BF054A00205A6002F1883254BF25
:1026B40001205A60704700BF002002402301674593
:1026C400034A0020136943F080031361704700BF7D
:1026D4000020024070B50546FFF754FD0646114C34
:1026E400E368D80712D4E368990644BF2023E36063
:1026F400E368DA0606D4E369DB0703D4E06810F084
:10270400040007D0FFF7A2FF012003E06B1CE7D011
:102714000DB9032070BDFFF735FD801BA842DFD93A
:10272400F7E700BF002002402DE9F84FDFF894A03E
:102734001F469AF818300546012B884691463FD02B
:1027440001234CF250308AF81830FFF7C3FF90BBD6
:10275400012D03D0022D14BF042502250026334683
:10276400DFF864B03401C4F12001A4F1200207FAB7
:1027740001F129FA04F4CAF81C300C4327FA02F2D6
:102784001443DBF81020A4B242F00102CBF810206D
:102794004CF2503028F81640FFF79CFFDBF810206D
:1027A40022F00102CBF8102028B90136F2B295428A
:1027B4004FF00003D6D800238AF81830BDE8F88F0C
:1027C4000220FBE7D8050020002002400022064B2F
:1027D400DA61064B1A6942F002021A6158611A69F9
:1027E40042F040021A617047D805002000200240E0
:1027F4002DE9F041264F05463B7E8846012B44D007
:1028040001243C7603684CF25030022B1AD1FFF7B6
:1028140061FF20B1012000233B76BDE8F0811D4C0F
:10282400F86123694CF2503043F0040323612369B7
:1028340043F040032361FFF74DFF236923F00403B2
:102844002361E8E7FFF746FF0028E3D14FF0FF33A9
:10285400C8F800302046AE680E4CD5E9023203EBCE
:10286400C223B342D7D93046FFF7B0FF4CF2503001
:10287400FFF730FF236923F00203236110B1C8F886
:102884000060C8E706F50066E7E70220C5E700BF79
:10289400D8050020002002402DE9F74F00242646E9
:1028A400DFF8A0C1684BDFF8A4E1DFF8A4810127B9
:1028B4000A68B74007EA020537EA020240F083805B
:1028C4004A68032A07D8013A022A00F29380DFE813
:1028D40002F0A0A5AB00122A00F0A3807AD8112A36
:1028E40000F09980FF2D98BF81464FF00F0B88BFF1
:1028F40000F104094FEA8602D9F8007088BF203A33
:102904000BFA02FA27EA0A0704FA02F21743C9F893
:102914000070D1F8049019F0805F54D0DCF81820CE
:1029240026F0030742F00102CCF81820DCF8182046
:1029340007F1804702F00102019207F5803706F0A3
:10294400030A019A4FEA8A0ABA680BFA0AFB22EAD6
:102954000B0B404A90426BD002F58062904269D0E2
:1029640002F58062904267D002F58062904265D0A1
:1029740002F58062904263D002F58062904214BFF7
:102984000622052202FA0AF242EA0B02BA601A6827
:1029940019F4803F14BF2A43AA431A605A6819F4F1
:1029A400003F14BF2A43AA435A609A6819F4801F4F
:1029B40014BF2A43AA439A60DA6819F4001F14BFAB
:1029C4002A43AA43DA600136102E7FF470AF03B0B5
:1029D400BDE8F08FDFF880904A450BD013D842450C
:1029E40008D0A9F580394A4504D0A9F580194A458B
:1029F4007FF478AF8A68CAB1012A4FF008040CBF8B
:102A0400076147616EE7DFF854904A45F2D072459A
:102A1400EEE7CC6866E7CC68043463E7CC68083436
:102A240060E7CC680C345DE700245BE7042459E7D5
:102A34000022A7E70122A5E70222A3E70322A1E7D8
:102A440004229FE7001002400004014000003210FD
:102A54000000121000080140000022100000311094
:102A640003682DE9F341DB07054610D42B689F0763
:102A74005ED42B68190700F195802B685A0700F182
:102A8400C180EA69002A40F02D81002014E0914CB5
:102A9400636803F00C03042B07D0636803F00C0392
:102AA400082B0CD16368DE0309D523689C03DDD5AC
:102AB4006B68002BDAD1012002B0BDE8F0816B68AD
:102AC400B3F5803F10D1236843F480332360FFF7CC
:102AD40059FB064623689803C8D4FFF753FB801BB1
:102AE4006428F7D90320E7E79BB9236823F48033EC
:102AF4002360236823F480232360FFF743FB064607
:102B040023689903B2D5FFF73DFB801B6428F7D9EE
:102B1400E8E7B3F5A02F236803D143F480232360AF
:102B2400D1E723F480332360236823F48023CDE7A3
:102B3400684C636813F00C0F07D0636803F00C0350
:102B4400082B10D16368DA030DD423689B0702D5E0
:102B54002B69012BAFD123686A6923F0F80343EA98
:102B6400C203236085E72A695B4B6AB101221A60BC
:102B7400FFF708FB064623689F07ECD4FFF702FB28
:102B8400801B0228F7D9ADE71A60FFF7FBFA064667
:102B9400236898077FF56DAFFFF7F4FA801B0228CE
:102BA400F6D99FE7AA694B4E4B4BE2B10122C3F819
:102BB4008024FFF7E7FA0446736A9B070DD54FF4A8
:102BC400FA52464B1B68B3FBF2F3019300BF019B1F
:102BD4005A1E0192002BF9D14FE7FFF7D3FA001BDD
:102BE4000228E9D97EE7C3F88024FFF7CBFA04462C
:102BF400736A9F077FF541AFFFF7C4FA001B0228F1
:102C0400F6D96FE7334CE369D80024D40127E3698C
:102C140043F08053E361E36903F080530093009B26
:102C24002F4E3368D90518D5EB68012B26D1236ABA
:102C340043F001032362FFF7A5FA41F28838064600
:102C4400236A9B073FD5002F3FF41BAFE36923F0B2
:102C54008053E36115E70027E2E7336843F48073A8
:102C64003360FFF78FFA80463368DA05DCD4FFF768
:102C740089FAA0EB08006428F6D933E7ABB9236AD4
:102C840041F2883823F001032362236A23F004030A
:102C94002362FFF777FA0646236A9807D3D5FFF72E
:102CA40071FA801B4045F7D91CE7052B236A03D131
:102CB40043F004032362BAE723F001032362236A87
:102CC40023F00403B6E7FFF75DFA801B4045B7D94C
:102CD40008E700BF00100240000042421C00002030
:102CE40000700040234C636803F00C03082B3FF48E
:102CF400E2AE022A4FF000021F4B1A662CD1FFF7F6
:102D040041FA06462368990120D42B6AB3F5803F23
:102D140005D16268A96822F400320A436260696AD4
:102D240062680B4322F47412134301226360124B52
:102D34001A66FFF727FA054623689A013FF5A5AE00
:102D4400FFF720FA401B0228F6D9CBE6FFF71AFA60
:102D5400801B0228D6D9C5E6FFF714FA0546236876
:102D64009B017FF592AEFFF70DFA401B0228F6D9BE
:102D7400B8E600BF001002400000424230B5194BD3
:102D840087B002AC03F1100522461868596808336D
:102D940003C2AB421446F7D140F201231249ADF805
:102DA40004304B6803F00C02082A18D1C3F38342A1
:102DB400DB0348BF4B6802F1180242BFC3F3404330
:102DC40018336B446A4412F8100C45BF13F8142CE2
:102DD400064B074BB3FBF2F3584307B030BD03482F
:102DE400FBE700BF1E5200080010024000127A00E8
:102DF40000093D004C4A2DE9F0411368044603F0F4
:102E040007038B420D4627D32268910731D4D2079A
:102E140037D4454A136803F00703AB4271D82268DC
:102E2400424D12F0040F77D1130706D56B6822695F
:102E340023F4605343EAC2036B60FFF79FFF6B68A0
:102E44003B4AC3F30313D35CD8403A4B18600020C9
:102E540000F084FC00200AE0136823F007030B430E
:102E64001360136803F007038B42CDD00120BDE843
:102E7400F0812E49A0684B6823F0F00303434B60B4
:102E8400C5E76268294E012A33681BD113F4003F59
:102E9400ECD0736841F2883823F003031343736062
:102EA400FFF770F963680746012B13D1736803F0C9
:102EB4000C03042BADD0FFF765F9C01B4045F5D9D1
:102EC4000320D4E7022A02D113F0007FE0E713F0D5
:102ED400020FDDE7022B0FD1736803F00C03082BFC
:102EE40097D0FFF74FF9C01B4045F5D9E8E7FFF746
:102EF40049F9C01B4045E3D8736813F00C0FF6D1B1
:102F040087E7136823F007032B431360136803F068
:102F14000703AB42AAD182E76B68E16823F4E0635C
:102F24000B436B6080E700BF0020024000100240AA
:102F3400745200081C000020014B1868704700BF41
:102F44001C000020044B054A5B68C3F30223D35CD6
:102F5400034A1068D8407047001002406C520008C1
:102F64001C000020044B054A5B68C3F3C223D35CF6
:102F7400034A1068D8407047001002406C520008A1
:102F84001C0000200F2303600B4B5A6802F003025D
:102F940042605A6802F0F00282605A6802F4E06209
:102FA400C2605B68DB0803F4E0630361034B1B68E6
:102FB40003F007030B60704700100240002002403A
:102FC40003682DE9F3410546D80721D5364CE3695A
:102FD400D9002BD40126E36943F08053E361E3690C
:102FE40003F080530193019B304F3B68DA051FD5F2
:102FF400236A6A6813F440732ED1236A6A6823F43F
:103004004073134323621EB1E36923F08053E361E9
:103014002A68910706D52449A8684B6823F44043DD
:1030240003434B60D30636D4002012E00026DBE7CE
:103034003B6843F480733B60FFF7A4F880463B6829
:10304400DB05D5D4FFF79EF8A0EB08006428F6D979
:10305400032002B0BDE8F08102F440729A42CCD061
:103064000120134A236AC2F84004002023F440716B
:10307400DF07C2F840042162BFD5FFF783F841F2AD
:1030840088380746236A9807B7D4FFF77BF8C01B34
:103094004045F7D9DCE7044A6969536823F480039F
:1030A4000B435360C0E700BF0010024000700040B3
:1030B40000004242036A70B523F001030362036A0D
:1030C400446882690D6822F073022A438D6823F0F4
:1030D40002032B430E4DA84202D00E4EB04210D133
:1030E400CE6823F008033343A84223F0040302D03C
:1030F400084DA84205D1D1E9055624F4407435435E
:103104002C43446082614A684263036270BD00BF1D
:10311400002C014000340140036A70B523F480732D
:103124000362036A4468C2690D6822F073022A4389
:103134008D6823F4007343EA0523114DA84203D09C
:1031440005F50065A84214D1CD6823F4006343EA71
:1031540005230B4D23F48063A84203D005F50065D5
:10316400A84206D1D1E9055624F44054354344EA33
:1031740005144460C2614A68C263036270BD00BF43
:10318400002C0140036A30B523F480530362036AC0
:103194004468C2690D6822F4E64242EA05228D6859
:1031A40023F4005343EA0533084DA84203D005F540
:1031B4000065A84204D14D6924F4804444EA85148E
:1031C4004460C2614A680264036230BD002C01405D
:1031D400036848689A6810B522F070020C680243CC
:1031E40022F00702224360289A6033D004D8402892
:1031F40010D050281CD010BD7028FCD1D1E9024257
:1032040098680969224320F47F4042EA012202437C
:103214009A60F0E7186A1A6A096922F001021A62D0
:103224009A6922F0F00242EA01129A611862E2E716
:1032340088680C69196A1A6A21F00A0122F00102ED
:103244001A629A69014322F0F00242EA04129A6176
:103254001962D0E71A6A886822F010020C691A62AF
:1032640099691A6A21F4704122F0A00241EA0431FA
:1032740042EA001299611A62BDE7704703680020B0
:10328400DA6842F00102DA601A6842F001021A6058
:103294007047704710B590F83C300446012B4FF04E
:1032A400020312D080F83D30FFF792FF2368DA68FA
:1032B40022F04002DA60DA6822F48042DA60012304
:1032C40084F83D30002384F83C30184610BD704724
:1032D400704770477047036810B51A690446910730
:1032E4000ED5DA6892070BD56FF002021A6101223B
:1032F40002779B699B0777D0FFF7EAFF00232377C8
:1033040023681A69500710D5DA6851070DD56FF094
:1033140004021A61022222779B69204613F4407F3B
:1033240068D0FFF7D5FF0023237723681A691207B3
:103334000FD5DA6810070CD56FF008021A61042261
:103344002277DB69204699075AD0FFF7C1FF002393
:10335400237723681A69D20610D5DA68D0060DD50A
:103364006FF010021A6108222277DB69204613F4F9
:10337400407F4BD0FFF7ACFF0023237723681A6903
:10338400D10708D5DA68D20705D56FF001022046C7
:103394001A6100F025FA23681A69100608D5DA685C
:1033A400110605D56FF0800220461A6100F0D4F9A9
:1033B40023681A69520608D5DA68500605D56FF0F5
:1033C400400220461A61FFF785FF23681A699106B7
:1033D40022D5DA6892061FD56FF020022046BDE898
:1033E40010401A6100F0B7B9FFF771FF2046FFF7EC
:1033F40070FF83E7FFF76BFF2046FFF76AFF92E752
:10340400FFF765FF2046FFF764FFA0E7FFF75FFFC4
:103414002046FFF75EFFAFE710BD0000244A0368B3
:10342400904212D002F5006290420ED0B0F1804F6B
:103434000BD0A2F59832904207D002F580629042F8
:1034440003D002F5806290421DD14A6823F07003D4
:103454001343174A904212D002F5006290420ED0F4
:10346400B0F1804F0BD0A2F59832904207D002F50C
:103474008062904203D002F58062904203D1CA6810
:1034840023F4407313434A6923F080031343036016
:103494008B68C3620B688362054B984203D003F5C3
:1034A4000063984201D10B690363012343617047B0
:1034B400002C014010B50446A0B190F83D3003F053
:1034C400FF021BB980F83C20FFF7D7FE02232068D7
:1034D40084F83D30211DFFF7A1FF0123002084F86B
:1034E4003D3010BD0120FCE710B50446A0B190F8B2
:1034F4003D3003F0FF021BB980F83C20FFF7C9FE02
:103504000223206884F83D30211DFFF787FF012343
:10351400002084F83D3010BD0120FCE7036A70B53B
:1035240023F010030362036A446882690D6822F47D
:10353400E64242EA05228D6823F0200343EA05139C
:10354400104DA84203D005F50065A84214D1CD68FA
:1035540023F0800343EA05130A4D23F04003A842F5
:1035640003D005F50065A84206D1D1E9055624F437
:103574004064354344EA8504446082614A68826356
:10358400036270BD002C014038B590F83C3004460D
:10359400012B4FF0020010D00123082A84F83C309C
:1035A40084F83D003CD009D8D2B1042A28D00123A4
:1035B400002084F83D3084F83C0038BD0C2AF6D154
:1035C4002068FFF7DFFDC3690A6943F40063C36140
:1035D400C36923F48063C361C36943EA02232DE012
:1035E4002068FFF767FD83690A6943F00803836174
:1035F400836923F004038361836913438361D6E7FA
:103604002068FFF78BFF83690A6943F400638361D1
:10361400836923F480638361836943EA0223EDE7CA
:103624002068FFF779FDC3690A6943F00803C361A1
:10363400C36923F00403C361C3691343C361B6E7D9
:1036440010B50124036A8C4023EA04030362036A6D
:103654008A401A43026210BD08B500680122FFF7D0
:10366400EFFF084B984203D003F50063984203D15F
:10367400436C43F400434364036843F00103036071
:10368400002008BD002C0140FFF7E6BF10B504245C
:10369400036A8C4023EA04030362036A8A401A43E0
:1036A400026210BD006808B50422FFF7EFFF436C07
:1036B40043F400434364036843F0010303600020C0
:1036C40008BDFFF7EFBF90F83C300246012B1ED037
:1036D400CB68886823F440730343486823F4806309
:1036E4000343086823F400630343086923F4805305
:1036F4000343486923F4005303430020896923F4F6
:1037040040430B4311684B6482F83C00704702202D
:10371400704710B590F83C300246012B4FF0020080
:1037240018D0136882F83D0058680C6820F07000C7
:1037340058605868496820435860986820F08000B1
:1037440098609868014399600020012382F83C0046
:1037540082F83D3010BD70477047000010B5014637
:1037640088B000221C20FEF715FF1C20FEF742FF44
:10377400184B01A9DA6903A842F00102DA61DB6996
:1037840003F001030293029BFFF7FCFB069BD3B9F2
:10379400FFF7D8FB4FF080430F4C236040F2E73330
:1037A400E3600E4BB0FBF3F0002301386060204669
:1037B4002361A360A361FFF77DFE40B92046FFF7B4
:1037C4005DFD08B010BDFFF7BDFB4000E2E701203E
:1037D400F7E700BF00100240F805002040420F0048
:1037E400FEF7C8BC0148FFF776BD00BFF80500200E
:1037F4002DE9F84304460368C1681A694FF01908B3
:1038040022F440520A431A6182680069D96802436B
:10381400606921F4B05121F00C0102430A43DA60DB
:103824005A69A16922F440720A435A613D4A93429B
:1038340046D1FFF797FB08FB00F763684FF0640974
:103844009B00B7FBF3F7FFF78DFB08FB00F56368FC
:10385400B7FBF9F79B00B5FBF3F5FFF783FB08FB18
:1038640000F063683F019B00B0FBF3F0B0FBF9F09C
:1038740009FB1056FFF776FB36013236B6FBF9F634
:1038840008FB00F5636806F0F0069B00B5FBF3F552
:10389400FFF768FB08FB00F0636822689B00B0FB3D
:1038A400F3F0B0FBF9F009FB10531B013233B3FB07
:1038B400F9F303F00F0333433B449360BDE8F8830B
:1038C400FFF740FB08FB00F763684FF064099B00B7
:1038D400B7FBF3F7FFF736FB08FB00F56368B7FBAC
:1038E400F9F79B00B5FBF3F5FFF72CFB08FB00F0A1
:1038F40063683F019B00B0FBF3F0B0FBF9F009FBF8
:103904001056FFF71FFB36013236B6FBF9F608FBFB
:1039140000F5636806F0F0069B00B5FBF3F5FFF7CE
:1039240011FBB7E700380140704710B5044640B3B7
:1039340090F8393003F0FF021BB980F83820FFF704
:10394400F3FF2423226884F83930D368204623F413
:103954000053D360FFF74CFF236800201A6922F458
:1039640090421A615A6922F02A025A61DA6842F4D2
:103974000052DA602023E06384F8393084F83A3066
:1039840010BD0120FCE70000034B044A1A6000222A
:10399400034B1A70704700BF380600204C500008D3
:1039A4003C06002000210B4B10B5002019700324A5
:1039B4000923094A013B13F0FF0302F1100202D16B
:1039C400064A137010BD42F8100C42F80C1C42F861
:1039D400044CEFE73E060020400600203D06002090
:1039E400014B1878704700BF3E060020034B0728A0
:1039F40098BF03EB00135868704700BF40060020CF
:103A04000729F8B504460D4614D80378222B13D1A0
:103A14000222314B013403EB01135C60DA6022783B
:103A24002346013412B1222AF9D1234600225C1E16
:103A340003F8012C2046F8BD00F094FB014668B160
:103A4400204600F0D5FA244B2A01985003EB0515C3
:103A5400FCF73CFE01236860EB60EBE72378302B36
:103A640011D16278782A12D102341022204600F053
:103A74009DFC194E2F0106EB05156860FCF746FD09
:103A84000023F051E8E7242B01D10134EDE7134A78
:103A9400127812B110220021E8E72D2B04BF013463
:103AA4000122214600204FF00A0C0D4F0B780C46E2
:103AB400FE5C013176070BD413F0DF0F04D02C2BFE
:103AC4001EBF08496B1C0B70002AD2D04042D0E7BD
:103AD400303B0CFB0030E9E7400600203C060020A8
:103AE400855200083D0600202DE9F041334C23683F
:103AF400002B60D00378002B5DD000F04FFB06460E
:103B040000F042FB0022831BDBB2042B027031D88D
:103B1400013B032B3AD8DFE803F0021E242D33784F
:103B24001B0100222568D6B23601A95981B39942F6
:103B340002F10102F7D1451CFFF734FF204F2B7827
:103B440013B13B78072B26D9236833449B68FBB118
:103B5400BDE8F0411847737832789B0103EB0213F8
:103B6400DFE7737832789B0103EB0213B27803EB3F
:103B74000223D6E7737832789B0103EB0213B27801
:103B840003EB0223F27803EB8223CAE70023C8E79E
:103B94000120BDE8F081284600F000FB03780546CB
:103BA400002BCCD039784B1C3B70FFF729FF00F079
:103BB400EBFA0546C3E71846EBE700BF38060020DA
:103BC4003E06002008B5FFF7D9F80E4BB0FBF3F022
:103BD4000D4B18600D4BD3F8FC2022F08072C3F813
:103BE400FC20D3F8FC2042F08072C3F8FC20A3F53B
:103BF4005D431A6822F001021A601A6842F0010259
:103C04001A6008BD40420F00C006002000ED00E02D
:103C14000022044B5A60044A126850435A68824294
:103C2400FCD37047001000E0C00600204FF47A7304
:103C34005843FFF7EDBF000010B586B0FEF72EFD28
:103C440001230022CDE90223074A01A902A8CDE9F4
:103C54000423FEF7CDFD0446FEF732FDB4FA84F0EA
:103C6400400906B010BD00BF00FC0108F8B5FFF71D
:103C7400E3FF0446C0B1FEF711FD0C4D0C4E0D4F91
:103C84002946D6E900230320FEF74EFD0835002817
:103C940014BF002404F00104BD4206F10806EFD16C
:103CA400FEF70EFD2046F8BD0124FBE700FC0108E9
:103CB400C406002038FC010810B5184A1849012030
:103CC40000F056F8174A04461749012000F050F84E
:103CD400164A17490444012000F04AF8154A1649C7
:103CE4000444012000F044F8144A15490444022015
:103CF40000F03EF8114A13490444022000F038F859
:103D04000E4A04441049022000F032F8241801D06D
:103D1400FFF7ACFFB4FA84F0400910BD605200080C
:103D2400C406002054520008C80600204852000867
:103D3400CC0600203C520008D00600203052000877
:103D4400D4060020D8060020DC060020054A064BD5
:103D540006491846043300688B4242F8040BF8D134
:103D6400704700BFC406002000FC01081CFC0108C9
:103D74000128F8B504460E4615460ED0022815D083
:103D840090B90B681268934202D3AA68934202D98D
:103D940001246B6833602046F8BD0B6812689342B7
:103DA400F6DBAA689342F3DC0024F4E709680846CA
:103DB400FCF776FC044610B101246B683360376865
:103DC40029683846FCF744FC28B93846A968FCF74A
:103DD4005DFC0028DFD06B6801343360DBE7884288
:103DE400A8BF084649428842B8BF08B270470000DD
:103DF4002022014B1A707047E0060020F8B50D46EA
:103E0400064640B10A48FCF70BFA0A4FC4B2AC426A
:103E140002D3074D2CB9F8BD3878013DB047EDB257
:103E2400F5E715F8010B013CB047E4B2F2E700BF37
:103E3400E1060020E006002070B40D46632D114613
:103E4400154C12D96422B5FBF2F2303204F8012B7E
:103E54006422B5FBF2F602FB16560A22F6B2B6FB52
:103E6400F2F6303604F8016B01E0092DF0D80A228D
:103E7400B5FBF2F602FB1655303525702BB9631CE1
:103E840000221A7070BCFFF7B9BF0D2302316370B2
:103E9400A270E31CC9B2F3E7E106002070B40D463A
:103EA4001146494A494C954262D90132B5FBF2F2B6
:103EB400303204F8012B464EB5FBF6F206FB1252E3
:103EC400444EB2FBF6F2303204F8012B414EB5FBFE
:103ED400F6F206FB1252404EB2FBF6F2303204F810
:103EE400012B3D4EB5FBF6F206FB12523B4EB2FBE4
:103EF400F6F2303204F8012B384EB5FBF6F206FB2D
:103F04001252374EB2FBF6F2303204F8012B344E23
:103F1400B5FBF6F206FB125242F21076B2FBF6F251
:103F2400303204F8012B42F21076B5FBF6F206FBB0
:103F340012524FF47A76B2FBF6F2303204F8012BC7
:103F44004FF47A76B5FBF6F206FB12526426B2FB06
:103F5400F6F2303204F8012B6426B5FBF6F206FBC8
:103F640012520A26B2FBF6F2303204F8012B16E0A4
:103F74001C4A95429FD8184A9542A7D21A4A95429C
:103F8400AFD81A4A9542B7D842F20F729542BED8BA
:103F9400B5F57A7FC7D2632DD2D8092DDCD80A2291
:103FA400B5FBF2F602FB1655303525702BB9631CB0
:103FB40000221A7070BCFFF721BF0D230231637019
:103FC400A270E31CC9B2F3E7FFC99A3BE1060020E3
:103FD40000CA9A3B00E1F5058096980040420F0024
:103FE400A0860100FFE0F5053F420F009F86010017
:103FF4002DE9F84390F800800646A8F12D014D42C2
:104004004D412F46DFF82491F35D19F80320520740
:104014000DD40024705D19F800305B075AD42E28A3
:104024005AD0B8F12D0F7DD02046BDE8F8832E2B51
:10403400EFD0002BEDD00137E6E73038FCF766FA15
:1040440001462046FCF7AEF904460135E2E7303874
:10405400FCF75CFA3649FCF7EBF8F1E73038FCF78B
:1040640055FA3449F7E73038FCF750FA3249F2E7A9
:104074003038FCF74BFA3149EDE73038FCF746FAB3
:104084002F49E8E73038FCF741FA2E49E3E73038A6
:10409400FCF73CFA2C49DEE73038FCF737FA2B49B9
:1040A400D9E73038FCF732FA2949D4E73038FCF73D
:1040B4002DFA2849CFE73038FCF728FA2649CAE711
:1040C4003038FCF723FA2549C5E73038FCF71EFAE7
:1040D4002349C0E70028A4D07B1B07330E2BB4D898
:1040E40001A252F823F000BFCF400008C5400008E9
:1040F400BB400008B1400008A74000089D400008EC
:10410400934000084F4000083F4000085340000817
:10411400614000086B400008754000087F400008BB
:104124008940000804F100447EE700BF855200087E
:10413400000020410000C84200007A4400401C46B0
:104144000050C34700247449CDCCCC3D0AD7233C4E
:104154006F12833A17B7D138ACC52737BD378635C8
:1041640095BFD633027803462D2A00D1013313F8C4
:10417400012B12F0DF0006D02C2A01D10020704759
:104184002E2AF4D1012070470346184613F8012B58
:1041940012F0DF0F01D02C2AF7D1704703461846DE
:1041A40013F8012B202AFAD02C2AF8D070470000EB
:1041B400002103E00B4B5B58435004310A480B4B7E
:1041C40042189A42F6D30A4A02E0002342F8043B1A
:1041D400084B9A42F9D300F011F800F01FF9FCF7EC
:1041E40039FC7047C853000800000020700000200C
:1041F4007000002040080020FEE700000F4B1A6802
:1042040042F001021A6059680D4A0A405A601A685D
:1042140022F0847222F480321A601A6822F4802216
:104224001A605A6822F4FE025A604FF41F029A6020
:104234004FF00062034B9A60704700BF00100240C9
:104244000000FFF800ED00E00122102330B597B024
:10425400CDE91023022400254FF460130CA8CDE906
:1042640014530C941394FEF7FBFB0F23CDE9013494
:104274004FF48063214601A8CDE904350395FEF788
:10428400B9FD4FF4404306A808930694FEF798FE40
:10429400FEF752FE4FF47A73B0FBF3F0FEF7B6F973
:1042A4000420FEF7C7F92A4629464FF0FF30FEF7EF
:1042B40071F917B030BD0000242B2DE9F047864674
:1042C400904601D8012B06D100F0A2F81623036012
:1042D4000020BDE8F0870D4633482A4615F8014B07
:1042E400065D16F00806F8D12D2C2DD101262C7868
:1042F400951C33F0100209D1302C2AD12A7802F00F
:10430400DF02582A25D110236C780235002206F1E9
:10431400004C0CF1FF3CBCFBF3F9104603FB19CA3B
:10432400A4F13007092F1BD83C46A34227DD571CB4
:1043340007D0814520D301D1A2451DDB012200FB1A
:10434400034015F8014BEBE72B2C04BF2C78951C8C
:10435400CFE7002BDAD1302C0CBF08230A23D5E792
:10436400A4F14107192F01D8373CDEE7A4F1610716
:10437400192F04D8573CD8E74FF0FF32E1E7531C1C
:1043840008D122236046CEF80030B8F1000FA0D047
:10439400691E06E006B14042B8F1000F99D0002A28
:1043A400F6D1C8F8001094E78552000813460A466F
:1043B400014602480068FFF77FBF00BF20000020CD
:1043C4000EB46FF0004100B59CB01DAB0290069096
:1043D400079104910848094953F8042B0591006892
:1043E40002A9019300F0A0F90022029B1A701CB0EC
:1043F4005DF804EB03B07047200000200802FFFFC3
:1044040003460244934200D1704703F8011BF9E7C5
:10441400014B1868704700BF2000002070B50026CB
:104424000C4D0D4C641BA410A64209D100F086FC6F
:1044340000260A4D0A4C641BA410A64205D170BD87
:1044440055F8043B98470136EEE755F8043B984786
:104454000136F2E7C0530008C0530008C0530008F7
:10446400C4530008704770470A44914200F1FF3377
:1044740000D1704710B511F8014B914203F8014F78
:10448400F9D110BD38B50546002940D051F8043C97
:104494000C1F002BB8BFE41800F0DEF81C4A1368A8
:1044A40033B9636014602846BDE8384000F0DAB8D8
:1044B400A34208D9206821188B4201BF19685B68A0
:1044C40009182160EDE71A465B680BB1A342FAD9DB
:1044D40011685018A0420BD120680144501883423F
:1044E4001160E0D118685B68084410605360DAE733
:1044F40002D90C232B60D6E7206821188B4201BF18
:1045040019685B680918216063605460CBE738BDA3
:104514003808002070B50F4E0C463168054611B9B5
:1045240000F0AAFB30602146284600F0A5FB431C9E
:1045340003D14FF0FF34204670BDC41C24F00304A3
:10454400A042F8D0211A284600F096FB0130F2D19F
:10455400EFE700BF340800202DE9F843CD1C25F017
:10456400030508350C2D38BF0C25002D064601DB4C
:10457400A94204D90C2333600020BDE8F883DFF896
:10458400D48000F069F8D8F800301C4644BB2946B2
:104594003046FFF7BFFF431C044658D1D8F800400B
:1045A4002746002F43D1002C4BD023683946304690
:1045B40004EB030900F060FB814542D121683046D9
:1045C4006D1A2946FFF7A6FF01303AD023682B4421
:1045D4002360D8F800305A6862BBC8F800700FE056
:1045E4002268521B20D40B2A17D96119A3422560D3
:1045F40018BF5960636808BFC8F8001062514B6067
:10460400304600F02FF804F10B00231D20F00700C2
:10461400C21A1CBF1B1AA350AFE76268A3420CBFA7
:10462400C8F800205A60EBE723466468AEE73C46CE
:104634007F68B6E71A465B68A342FBD10023536048
:10464400DEE70C233046336000F00CF894E7056095
:10465400D6E700BF380800200148FFF703BF00BFBA
:10466400300800200148FFF7FEBE00BF30080020DC
:104674002DE9F0471F468E688246BE420C4690469E
:104684000B682DD8B1F90C2012F4906F26D065690F
:10469400096905EB4505A3EB010905EBD5757B1C01
:1046A4004B446D109D4238BF1D46530527D52946FE
:1046B400FFF752FF064660B34A462169FFF7D4FE6E
:1046C400A38923F4906343F08003A38126614E44BD
:1046D40026603E466561A5EB0905A560BE4200D98A
:1046E4003E4632464146206800F0ACFA0020A368FA
:1046F4009B1BA360236833442360BDE8F0872A46EC
:1047040000F0D8FA06460028E0D150462169FFF7A8
:10471400B9FE0C23CAF80030A3894FF0FF3043F0F0
:104724004003A381E9E700002DE9F04F98468B8907
:1047340007461B060D4614469DB010D50B6973B988
:104744004021FFF709FF2860286130B90C233B6042
:104754004FF0FF301DB0BDE8F08F40236B610023A4
:10476400099320238DF8293030234FF00109CDF827
:104774000C80DFF898818DF82A3023469A4613F886
:10478400012B0AB1252AF9D1BAEB040B0BD05B46F5
:10479400224629463846FFF76BFF013000F0A78018
:1047A400099A5A4409929AF80030002B00F09F802D
:1047B40000234FF0FF32CDE905230AF1010A0493E7
:1047C40007938DF853301A935446052214F8011BAD
:1047D4004E4800F061FA049AD8B9D00644BF2023A9
:1047E4008DF85330110744BF2B238DF853309AF8BA
:1047F40000302A2B15D0544600204FF00A0C079A9B
:10480400214611F8013B303B092B4BD9B0B107923B
:1048140014E0A0EB080309FA03F31343A24604933C
:10482400D2E7039B191D1B680391002BBBBF5B429E
:1048340042F0020207930793B8BF049223782E2B09
:104844000AD163782A2B32D1039B02341A1D1B68C8
:10485400039243EAE3730593DFF8B4A003225046BE
:10486400217800F019FA38B14022049BA0EB0A0029
:10487400824013430134049314F8011B0622254893
:104884008DF8281000F008FA002836D0224B1BBB04
:10489400039B073323F0070308330393099B334433
:1048A40009936AE70C4601200CFB0232A8E70023B7
:1048B4004FF00A0C194601340593204610F8012BD9
:1048C400303A092A03D9002BC6D00591C4E704461F
:1048D40001230CFB0121F0E703AB00932A46384681
:1048E4000E4B04A9AFF30080421C0646D6D1AB8917
:1048F4005B063FF52DAF09982CE703AB00932A46DE
:104904003846064B04A900F07DF8EDE7855300080E
:104914008B5300088F530008000000007546000800
:104924002DE9F047164698468A680B690746934274
:10493400B8BF1346336091F843200C46DDF820904D
:104944000AB1013333602368990642BF33680233E6
:104954003360256815F0060506D104F1190AE368E9
:1049640032689B1AAB422BDC94F843302268003B3C
:1049740018BF0123920630D44146384604F143025D
:10498400C847013023D02368226903F00603042BAF
:1049940014BF002533684FF0000608BFE56804F132
:1049A4001A0408BFED1A54F8123C08BF25EAE5754D
:1049B4009342C4BF9B1AED18B5421AD1002008E0F7
:1049C4000123524641463846C847013003D14FF0CF
:1049D400FF30BDE8F0870135C1E73020E11881F8E8
:1049E40043005A1C94F845102244023382F84310C1
:1049F400C2E70123224641463846C8470130E6D083
:104A04000136D9E72DE9FF470F7E9146782F80467E
:104A14000C469A460C9E01F1430207D8622F0AD82D
:104A2400002F00F0D380582F00F0BA8004F1420622
:104A340084F842703AE0A7F16303152BF6D801A17C
:104A440051F823F0A14A0008B54A0008314A000889
:104A5400314A0008314A0008314A0008B54A0008C2
:104A6400314A0008314A0008314A0008314A000836
:104A7400B74B0008DF4A0008714B0008314A0008B0
:104A8400314A0008D94B0008314A0008DF4A0008BF
:104A9400314A0008314A0008794B000833681A1D6E
:104AA4001B68326004F1420684F8423001239EE020
:104AB40033682068191D3160060601D51D6803E0BE
:104AC4004506FBD5B3F90050002D03DA2D236D42C2
:104AD40084F843300A23594811E0216833680806F2
:104AE40053F8045B02D4490648BFADB26F2F33605C
:104AF40014BF0A2308235148002184F84310666830
:104B0400002EA8BF2168A660A4BF21F00401216083
:104B14000DB9002E4BD01646B5FBF3F103FB11572C
:104B2400C75D06F8017D2F46BB420D46F4D9082B1C
:104B34000BD12368DF0708D5236961689942DEBF7A
:104B4400302306F8013C06F1FF36921B22614B46E6
:104B540021464046CDF800A003AAFFF7E1FE01304C
:104B64004AD14FF0FF3004B0BDE8F087236843F02A
:104B7400200323607827324884F84570236831681D
:104B84001F0651F8045B02D45F0648BFADB2316022
:104B9400D90744BF43F0200323601DB11023ABE7C2
:104BA4002648E9E7236823F020032360F6E7164646
:104BB400BDE733682568181D616930602E061B68DF
:104BC40001D5196002E06806FBD51980002316465A
:104BD4002361BCE7336800211A1D32601E686268D5
:104BE400304600F059F808B1801B606063682361A7
:104BF400002384F84330AAE73246494640462369F5
:104C0400D0470130ADD023689B0713D4E068039BE1
:104C14009842B8BF1846A6E70123324649464046A3
:104C2400D04701309DD00135E36803995B1AAB424C
:104C3400F2DCEBE7002504F11906F5E796530008CA
:104C4400A7530008884210B501EB020402D984423C
:104C5400234607D8431EA14208D011F8012B03F8BC
:104C6400012FF8E7014602448A4200D110BD13F82F
:104C7400014D02F8014DF7E738B50023054D044610
:104C840008462B6000F04CF8431C02D12B6803B19A
:104C9400236038BD2C080020034610B5C9B2024475
:104CA4009342184601D1002003E0047801338C427A
:104CB400F6D110BD2DE9F041804615460C4621B9C8
:104CC4001146BDE8F041FFF747BC2AB9FFF7DAFB0C
:104CD40000242046BDE8F08100F01AF8854206461B
:104CE40002D8B5EB500FF4D829464046FFF734FC00
:104CF40007460028ECD0B5422A46214628BF324652
:104D0400FFF7B2FB21464046FFF7BCFB3C46E0E719
:104D140051F8043C181F002BBCBF0B58C018704737
:104D2400044A0346116809B9034911601068034431
:104D3400136070473C08002048080020F8B500BF05
:104D4400F8BC08BC9E467047F8B500BFF8BC08BC68
:044D54009E467047C0
:104D5800536176652074686520532E42757320531D
:104D680070656564204164647265737377697468FB
:104D7800203C6565733E20696620726571756972AD
:104D880065642E0D0A005361766520746865206E8F
:104D9800657720532E427573205374656572696E6A
:104DA8006720416464726573732077697468203C76
:104DB8006565733E20696620726571756972656400
:104DC8002E0D0A005361766520746865206E65773C
:104DD800204D6F64652077697468203C6565733E73
:104DE8002069662072657175697265642E0D0A0006
:104DF8004144430053455249414C0052432D532EE0
:104E080042555300537769746368656420746F2052
:104E180000204D6F64652C2073656C656374207485
:104E2800686520726967687420696E746572666166
:104E380063652E2E2E0D0A00436F6E74726F6C2000
:104E48004D6F64652E2E2E2E2E2E2E2E2E2E2E2EAD
:104E58003A2000203D2000532E4275732053706580
:104E6800656420416464726573732E2E2E2E2E3A6B
:104E78002000532E42757320537465657220416477
:104E880064726573732E2E2E2E2E3A2000532E42F6
:104E9800757320486F6C642044617461206F6E20C4
:104EA8004572726F723A20007372202020446F207E
:104EB800536F667477617265205265736574007804
:104EC80020202020446F20456D657267656E6379E8
:104ED80020506F776572204F6666004545452A2049
:104EE800446F20454550524F4D204572617365000F
:104EF8006565732020446F20454550524F4D20531F
:104F080061766520506172616D65746572730063C6
:104F18006D20202053657420436F6E74726F6C206F
:104F28004D6F64652028312E2E332900737320209D
:104F380020536574205370656564205374656572E9
:104F48002056616C7565732028537065656420561A
:104F5800616C75652C2053746565722056616C759B
:104F6800652900737020202053657420537065658F
:104F7800642056616C756520282D313030302E2E16
:104F88003130303029007374202020536574205349
:104F9800746565722056616C756520282D31303036
:104FA800302E2E31303030290073627370205365F3
:104FB8007420532E427573205370656564204164D4
:104FC80064726573732028302E2E31352900736280
:104FD80073742053657420532E427573205374657F
:104FE8006572696E67204164647265737320283046
:104FF8002E2E3135290073626820205365742053A2
:105008002E42757320486F6C64206F6E2045727253
:105018006F722028302E2E31290065653F202047E9
:10502800657420454550524F4D20506172616D6541
:1050380074657273003F20202020476574204865FE
:105048006C700000B0230000010000004107000858
:10505800B04E000880070000010000004907000862
:10506800C74E0008900201000100000095070008E3
:10507800E34E00089092000001000000A507000818
:10508800F84E00087021000001000000190900080E
:10509800174F0008F0230000010000009D080008D9
:1050A800344F000830230000010000004D080008BC
:1050B8006B4F00083024000001000000750800084C
:1050C8008E4F0008B052020001000000B50700082A
:1050D800B14F0008B062020001000000E9070008B3
:1050E800D64F0008B0870000010000001D08000826
:1050F800FE4F0008905E00000100000065090008EE
:1051080022500008F00300000100000061070008B9
:105118003D500008000000000000000000000000F2
:10512800000000000D0A4170706C69636174696F5A
:105138006E2E3A2000486F766572626F6172642045
:10514800436F6D6D616E6420496E7465727072652F
:10515800746572202A2A2A203235303230554A00A6
:105168000D0A53797374656D20636C6F636B3A2015
:105178000048434C4B2E2E2E2E2E2E2E2E3A20003B
:1051880050434C4B312E2E2E2E2E2E2E3A20000D13
:105198000A454550524F4D20446174612E3A200013
:1051A8004F6B0D0A00496E76616C6964202D206E84
:1051B800657720696E697469616C697A6564210D27
:1051C8000A000D0A3E3E3E205479706520273F278D
:1051D8003C43523E20666F722048656C700D0A0091
:1051E8000D0A3E000000020104050300313A25695A
:1051F80020323A256920333A256920343A25692036
:10520800353A256920363A256920373A2569203804
:105218003A25690D0A0002030405060708090A0B66
:105228000C0D0E0F1010000000E87DC700E440468A
:1052380000E87D47000000000000000001000000B9
:1052480000000000010000000F0000000000000046
:10525800000000000F000000010000000200000034
:105268000300000000000000010203040000000029
:10527800000000000102030406070809002020209E
:1052880020202020202028282828282020202020EE
:1052980020202020202020202020202020881010BE
:1052A800101010101010101010101010100404041A
:1052B80004040404040404101010101010104141D8
:1052C80041414141010101010101010101010101C6
:1052D80001010101010101011010101010104242DA
:1052E8004242424202020202020202020202020296
:1052F8000202020202020202101010102000000036
:105308000000000000000000000000000000000095
:105318000000000000000000000000000000000085
:105328000000000000000000000000000000000075
:105338000000000000000000000000000000000065
:105348000000000000000000000000000000000055
:105358000000000000000000000000000000000045
:105368000000000000000000000000000000000035
:1053780000000000000000000000000000232D30A5
:105388002B2000686C4C0065666745464700303145
:105398003233343536373839414243444546003094
:1053A80031323334353637383961626364656600C3
:0853B8006CAEFF7F0100000054
:0453C00009020008D6
:0453C400E5010008F7
:1053C80000002042D0070000D0070000D0070000EE
:1053D800D0070000D0070000D007000000A24A0450
:1053E8002400002000000000F40600205C070020D4
:1053F800C4070020000000000000000000000000BA
:105408000000000000000000000000000000000094
:105418000000000000000000000000000000000084
:105428000000000000000000000000000000000074
:04000005080041B5F9
:00000001FF
